{
  "address": "0x5FbDB2315678afecb367f032d93F642f64180aa3",
  "abi": [
    {
      "inputs": [
        {
          "internalType": "address",
          "name": "NFTContractAddress",
          "type": "address"
        },
        {
          "internalType": "uint256",
          "name": "TokenId",
          "type": "uint256"
        }
      ],
      "name": "NFTMarketPlace__NFTAlreadyMinted",
      "type": "error"
    },
    {
      "inputs": [],
      "name": "NFTMarketPlace__NFTNotApprovedForMarketPlace",
      "type": "error"
    },
    {
      "inputs": [],
      "name": "NFTMarketPlace__NoProceeds",
      "type": "error"
    },
    {
      "inputs": [
        {
          "internalType": "address",
          "name": "NFTContractAddress",
          "type": "address"
        },
        {
          "internalType": "uint256",
          "name": "tokenId",
          "type": "uint256"
        }
      ],
      "name": "NFTMarketPlace__NotListed",
      "type": "error"
    },
    {
      "inputs": [],
      "name": "NFTMarketPlace__NotOwner",
      "type": "error"
    },
    {
      "inputs": [],
      "name": "NFTMarketPlace__PriceMustBeAboveZero",
      "type": "error"
    },
    {
      "inputs": [
        {
          "internalType": "address",
          "name": "NFTContractAddress",
          "type": "address"
        },
        {
          "internalType": "uint256",
          "name": "tokenId",
          "type": "uint256"
        },
        {
          "internalType": "uint256",
          "name": "price",
          "type": "uint256"
        }
      ],
      "name": "NFTMarketPlace__PriceNotMet",
      "type": "error"
    },
    {
      "inputs": [],
      "name": "NFTMarketPlace__TransferFailed",
      "type": "error"
    },
    {
      "anonymous": false,
      "inputs": [
        {
          "indexed": true,
          "internalType": "address",
          "name": "buyer",
          "type": "address"
        },
        {
          "indexed": true,
          "internalType": "address",
          "name": "NFTContractAddress",
          "type": "address"
        },
        {
          "indexed": true,
          "internalType": "uint256",
          "name": "tokenId",
          "type": "uint256"
        },
        {
          "indexed": false,
          "internalType": "uint256",
          "name": "price",
          "type": "uint256"
        }
      ],
      "name": "ItemBought",
      "type": "event"
    },
    {
      "anonymous": false,
      "inputs": [
        {
          "indexed": true,
          "internalType": "address",
          "name": "seller",
          "type": "address"
        },
        {
          "indexed": true,
          "internalType": "address",
          "name": "NFTContractAddress",
          "type": "address"
        },
        {
          "indexed": true,
          "internalType": "uint256",
          "name": "tokenId",
          "type": "uint256"
        }
      ],
      "name": "ItemCancelled",
      "type": "event"
    },
    {
      "anonymous": false,
      "inputs": [
        {
          "indexed": true,
          "internalType": "address",
          "name": "seller",
          "type": "address"
        },
        {
          "indexed": true,
          "internalType": "address",
          "name": "NFTContractAddress",
          "type": "address"
        },
        {
          "indexed": false,
          "internalType": "uint256",
          "name": "tokenId",
          "type": "uint256"
        },
        {
          "indexed": false,
          "internalType": "uint256",
          "name": "price",
          "type": "uint256"
        }
      ],
      "name": "ItemListing",
      "type": "event"
    },
    {
      "inputs": [
        {
          "internalType": "address",
          "name": "NFTContractAddress",
          "type": "address"
        },
        {
          "internalType": "uint256",
          "name": "tokenId",
          "type": "uint256"
        }
      ],
      "name": "BuyItem",
      "outputs": [],
      "stateMutability": "payable",
      "type": "function"
    },
    {
      "inputs": [
        {
          "internalType": "address",
          "name": "NFTContractAddress",
          "type": "address"
        },
        {
          "internalType": "uint256",
          "name": "tokenId",
          "type": "uint256"
        }
      ],
      "name": "CancelListing",
      "outputs": [],
      "stateMutability": "nonpayable",
      "type": "function"
    },
    {
      "inputs": [
        {
          "internalType": "address",
          "name": "NFTContractAddress",
          "type": "address"
        },
        {
          "internalType": "uint256",
          "name": "tokenId",
          "type": "uint256"
        },
        {
          "internalType": "uint256",
          "name": "price",
          "type": "uint256"
        }
      ],
      "name": "ListItem",
      "outputs": [],
      "stateMutability": "nonpayable",
      "type": "function"
    },
    {
      "inputs": [
        {
          "internalType": "address",
          "name": "NFTContractAddress",
          "type": "address"
        },
        {
          "internalType": "uint256",
          "name": "tokenId",
          "type": "uint256"
        },
        {
          "internalType": "uint256",
          "name": "newPrice",
          "type": "uint256"
        }
      ],
      "name": "UpdateListing",
      "outputs": [],
      "stateMutability": "nonpayable",
      "type": "function"
    },
    {
      "inputs": [],
      "name": "Withdraw",
      "outputs": [],
      "stateMutability": "nonpayable",
      "type": "function"
    },
    {
      "inputs": [
        {
          "internalType": "address",
          "name": "NFTContractAddress",
          "type": "address"
        },
        {
          "internalType": "uint256",
          "name": "tokenId",
          "type": "uint256"
        }
      ],
      "name": "getListing",
      "outputs": [
        {
          "components": [
            {
              "internalType": "uint256",
              "name": "PriceNFT",
              "type": "uint256"
            },
            {
              "internalType": "address",
              "name": "seller",
              "type": "address"
            }
          ],
          "internalType": "struct NFTMarketPlace.Listing",
          "name": "",
          "type": "tuple"
        }
      ],
      "stateMutability": "view",
      "type": "function"
    },
    {
      "inputs": [
        {
          "internalType": "address",
          "name": "seller",
          "type": "address"
        }
      ],
      "name": "getProceeds",
      "outputs": [
        {
          "internalType": "uint256",
          "name": "",
          "type": "uint256"
        }
      ],
      "stateMutability": "view",
      "type": "function"
    }
  ],
  "transactionHash": "0x05b5083a14e90fec22a430a77031b36636f601f05650509dfbc0a7c54683034a",
  "args": [],
  "numDeployments": 1,
  "solcInputHash": "ac1847b2d8de4dc1452b96ad6eace11e",
  "bytecode": "0x608060405234801561001057600080fd5b50600160008190555061178d806100286000396000f3fe6080604052600436106100705760003560e01c8063713033621161004e57806371303362146100f257806388700d1c1461010e57806399e265961461014b578063d7d8a3971461017457610070565b806330cfeda91461007557806331880bc4146100b257806357ea89b6146100db575b600080fd5b34801561008157600080fd5b5061009c6004803603810190610097919061130b565b61019d565b6040516100a991906115c6565b60405180910390f35b3480156100be57600080fd5b506100d960048036038101906100d491906113a5565b6101e6565b005b3480156100e757600080fd5b506100f061065f565b005b61010c60048036038101906101079190611365565b6107c9565b005b34801561011a57600080fd5b5061013560048036038101906101309190611365565b610bb6565b60405161014291906115ab565b60405180910390f35b34801561015757600080fd5b50610172600480360381019061016d91906113a5565b610c81565b005b34801561018057600080fd5b5061019b60048036038101906101969190611365565b610f53565b005b6000600260008373ffffffffffffffffffffffffffffffffffffffff1673ffffffffffffffffffffffffffffffffffffffff168152602001908152602001600020549050919050565b8282336000600160008573ffffffffffffffffffffffffffffffffffffffff1673ffffffffffffffffffffffffffffffffffffffff1681526020019081526020016000206000848152602001908152602001600020604051806040016040529081600082015481526020016001820160009054906101000a900473ffffffffffffffffffffffffffffffffffffffff1673ffffffffffffffffffffffffffffffffffffffff1673ffffffffffffffffffffffffffffffffffffffff168152505090506000816000015111156102f45783836040517f748ab4ac0000000000000000000000000000000000000000000000000000000081526004016102eb92919061152b565b60405180910390fd5b868633600083905060008173ffffffffffffffffffffffffffffffffffffffff16636352211e856040518263ffffffff1660e01b815260040161033791906115c6565b60206040518083038186803b15801561034f57600080fd5b505afa158015610363573d6000803e3d6000fd5b505050506040513d601f19601f820116820180604052508101906103879190611338565b90508073ffffffffffffffffffffffffffffffffffffffff168373ffffffffffffffffffffffffffffffffffffffff16146103ee576040517ffdeb5dcc00000000000000000000000000000000000000000000000000000000815260040160405180910390fd5b60008a11610428576040517fe088d80a00000000000000000000000000000000000000000000000000000000815260040160405180910390fd5b60008c90503073ffffffffffffffffffffffffffffffffffffffff168173ffffffffffffffffffffffffffffffffffffffff1663081812fc8e6040518263ffffffff1660e01b815260040161047d91906115c6565b60206040518083038186803b15801561049557600080fd5b505afa1580156104a9573d6000803e3d6000fd5b505050506040513d601f19601f820116820180604052508101906104cd9190611338565b73ffffffffffffffffffffffffffffffffffffffff161461051a576040517f0bee3d1f00000000000000000000000000000000000000000000000000000000815260040160405180910390fd5b60405180604001604052808c81526020013373ffffffffffffffffffffffffffffffffffffffff16815250600160008f73ffffffffffffffffffffffffffffffffffffffff1673ffffffffffffffffffffffffffffffffffffffff16815260200190815260200160002060008e81526020019081526020016000206000820151816000015560208201518160010160006101000a81548173ffffffffffffffffffffffffffffffffffffffff021916908373ffffffffffffffffffffffffffffffffffffffff1602179055509050508c73ffffffffffffffffffffffffffffffffffffffff163373ffffffffffffffffffffffffffffffffffffffff167fc15f8db4bea81c58d4b31a2134cf1d25f6fcfe7559f6df346f8b3a0ddc0e44588e8e6040516106489291906115e1565b60405180910390a350505050505050505050505050565b6000600260003373ffffffffffffffffffffffffffffffffffffffff1673ffffffffffffffffffffffffffffffffffffffff168152602001908152602001600020549050600081116106dd576040517f57b9893c00000000000000000000000000000000000000000000000000000000815260040160405180910390fd5b6000600260003373ffffffffffffffffffffffffffffffffffffffff1673ffffffffffffffffffffffffffffffffffffffff1681526020019081526020016000208190555060003373ffffffffffffffffffffffffffffffffffffffff1682604051610748906114cc565b60006040518083038185875af1925050503d8060008114610785576040519150601f19603f3d011682016040523d82523d6000602084013e61078a565b606091505b50509050806107c5576040517f29cd022e00000000000000000000000000000000000000000000000000000000815260040160405180910390fd5b5050565b81816000600160008473ffffffffffffffffffffffffffffffffffffffff1673ffffffffffffffffffffffffffffffffffffffff1681526020019081526020016000206000838152602001908152602001600020604051806040016040529081600082015481526020016001820160009054906101000a900473ffffffffffffffffffffffffffffffffffffffff1673ffffffffffffffffffffffffffffffffffffffff1673ffffffffffffffffffffffffffffffffffffffff1681525050905060008160000151116108d55782826040517fd39a41590000000000000000000000000000000000000000000000000000000081526004016108cc92919061152b565b60405180910390fd5b6108dd611242565b6000600160008773ffffffffffffffffffffffffffffffffffffffff1673ffffffffffffffffffffffffffffffffffffffff1681526020019081526020016000206000868152602001908152602001600020604051806040016040529081600082015481526020016001820160009054906101000a900473ffffffffffffffffffffffffffffffffffffffff1673ffffffffffffffffffffffffffffffffffffffff1673ffffffffffffffffffffffffffffffffffffffff1681525050905080600001513410156109ed57858582600001516040517f63c94a0f0000000000000000000000000000000000000000000000000000000081526004016109e493929190611554565b60405180910390fd5b3460026000836020015173ffffffffffffffffffffffffffffffffffffffff1673ffffffffffffffffffffffffffffffffffffffff1681526020019081526020016000206000828254610a409190611637565b92505081905550600160008773ffffffffffffffffffffffffffffffffffffffff1673ffffffffffffffffffffffffffffffffffffffff16815260200190815260200160002060008681526020019081526020016000206000808201600090556001820160006101000a81549073ffffffffffffffffffffffffffffffffffffffff021916905550508573ffffffffffffffffffffffffffffffffffffffff1663b88d4fde826020015133886040518463ffffffff1660e01b8152600401610b0a939291906114e1565b600060405180830381600087803b158015610b2457600080fd5b505af1158015610b38573d6000803e3d6000fd5b50505050848673ffffffffffffffffffffffffffffffffffffffff163373ffffffffffffffffffffffffffffffffffffffff167f263223b1dd81e51054a4e6f791d45a4a1ddb4aadcd93a2dfd892615c3fdac1878460000151604051610b9e91906115c6565b60405180910390a450610baf611292565b5050505050565b610bbe61129c565b600160008473ffffffffffffffffffffffffffffffffffffffff1673ffffffffffffffffffffffffffffffffffffffff1681526020019081526020016000206000838152602001908152602001600020604051806040016040529081600082015481526020016001820160009054906101000a900473ffffffffffffffffffffffffffffffffffffffff1673ffffffffffffffffffffffffffffffffffffffff1673ffffffffffffffffffffffffffffffffffffffff1681525050905092915050565b82826000600160008473ffffffffffffffffffffffffffffffffffffffff1673ffffffffffffffffffffffffffffffffffffffff1681526020019081526020016000206000838152602001908152602001600020604051806040016040529081600082015481526020016001820160009054906101000a900473ffffffffffffffffffffffffffffffffffffffff1673ffffffffffffffffffffffffffffffffffffffff1673ffffffffffffffffffffffffffffffffffffffff168152505090506000816000015111610d8d5782826040517fd39a4159000000000000000000000000000000000000000000000000000000008152600401610d8492919061152b565b60405180910390fd5b858533600083905060008173ffffffffffffffffffffffffffffffffffffffff16636352211e856040518263ffffffff1660e01b8152600401610dd091906115c6565b60206040518083038186803b158015610de857600080fd5b505afa158015610dfc573d6000803e3d6000fd5b505050506040513d601f19601f82011682018060405250810190610e209190611338565b90508073ffffffffffffffffffffffffffffffffffffffff168373ffffffffffffffffffffffffffffffffffffffff1614610e87576040517ffdeb5dcc00000000000000000000000000000000000000000000000000000000815260040160405180910390fd5b88600160008d73ffffffffffffffffffffffffffffffffffffffff1673ffffffffffffffffffffffffffffffffffffffff16815260200190815260200160002060008c8152602001908152602001600020600001819055508a73ffffffffffffffffffffffffffffffffffffffff163373ffffffffffffffffffffffffffffffffffffffff167fc15f8db4bea81c58d4b31a2134cf1d25f6fcfe7559f6df346f8b3a0ddc0e44588c8c604051610f3e9291906115e1565b60405180910390a35050505050505050505050565b818133600083905060008173ffffffffffffffffffffffffffffffffffffffff16636352211e856040518263ffffffff1660e01b8152600401610f9691906115c6565b60206040518083038186803b158015610fae57600080fd5b505afa158015610fc2573d6000803e3d6000fd5b505050506040513d601f19601f82011682018060405250810190610fe69190611338565b90508073ffffffffffffffffffffffffffffffffffffffff168373ffffffffffffffffffffffffffffffffffffffff161461104d576040517ffdeb5dcc00000000000000000000000000000000000000000000000000000000815260040160405180910390fd5b86866000600160008473ffffffffffffffffffffffffffffffffffffffff1673ffffffffffffffffffffffffffffffffffffffff1681526020019081526020016000206000838152602001908152602001600020604051806040016040529081600082015481526020016001820160009054906101000a900473ffffffffffffffffffffffffffffffffffffffff1673ffffffffffffffffffffffffffffffffffffffff1673ffffffffffffffffffffffffffffffffffffffff1681525050905060008160000151116111595782826040517fd39a415900000000000000000000000000000000000000000000000000000000815260040161115092919061152b565b60405180910390fd5b600160008b73ffffffffffffffffffffffffffffffffffffffff1673ffffffffffffffffffffffffffffffffffffffff16815260200190815260200160002060008a81526020019081526020016000206000808201600090556001820160006101000a81549073ffffffffffffffffffffffffffffffffffffffff02191690555050888a73ffffffffffffffffffffffffffffffffffffffff163373ffffffffffffffffffffffffffffffffffffffff167f6e08c1d889d309942730e4afa7963d0c5294a34a479f2c8cf39a953f287dcdee60405160405180910390a450505050505050505050565b60026000541415611288576040517f08c379a000000000000000000000000000000000000000000000000000000000815260040161127f9061158b565b60405180910390fd5b6002600081905550565b6001600081905550565b604051806040016040528060008152602001600073ffffffffffffffffffffffffffffffffffffffff1681525090565b6000813590506112db81611729565b92915050565b6000815190506112f081611729565b92915050565b60008135905061130581611740565b92915050565b600060208284031215611321576113206116f8565b5b600061132f848285016112cc565b91505092915050565b60006020828403121561134e5761134d6116f8565b5b600061135c848285016112e1565b91505092915050565b6000806040838503121561137c5761137b6116f8565b5b600061138a858286016112cc565b925050602061139b858286016112f6565b9150509250929050565b6000806000606084860312156113be576113bd6116f8565b5b60006113cc868287016112cc565b93505060206113dd868287016112f6565b92505060406113ee868287016112f6565b9150509250925092565b6114018161168d565b82525050565b6114108161168d565b82525050565b600061142360008361160a565b915061142e826116fd565b600082019050919050565b600061144660008361161b565b9150611451826116fd565b600082019050919050565b6000611469601f83611626565b915061147482611700565b602082019050919050565b60408201600082015161149560008501826114ae565b5060208201516114a860208501826113f8565b50505050565b6114b7816116bf565b82525050565b6114c6816116bf565b82525050565b60006114d782611439565b9150819050919050565b60006080820190506114f66000830186611407565b6115036020830185611407565b61151060408301846114bd565b818103606083015261152181611416565b9050949350505050565b60006040820190506115406000830185611407565b61154d60208301846114bd565b9392505050565b60006060820190506115696000830186611407565b61157660208301856114bd565b61158360408301846114bd565b949350505050565b600060208201905081810360008301526115a48161145c565b9050919050565b60006040820190506115c0600083018461147f565b92915050565b60006020820190506115db60008301846114bd565b92915050565b60006040820190506115f660008301856114bd565b61160360208301846114bd565b9392505050565b600082825260208201905092915050565b600081905092915050565b600082825260208201905092915050565b6000611642826116bf565b915061164d836116bf565b9250827fffffffffffffffffffffffffffffffffffffffffffffffffffffffffffffffff03821115611682576116816116c9565b5b828201905092915050565b60006116988261169f565b9050919050565b600073ffffffffffffffffffffffffffffffffffffffff82169050919050565b6000819050919050565b7f4e487b7100000000000000000000000000000000000000000000000000000000600052601160045260246000fd5b600080fd5b50565b7f5265656e7472616e637947756172643a207265656e7472616e742063616c6c00600082015250565b6117328161168d565b811461173d57600080fd5b50565b611749816116bf565b811461175457600080fd5b5056fea26469706673582212206f97e5ad4a8e8996e186646de386f812328d8f0e78b692c6b052e9fb560cf4d964736f6c63430008070033",
  "devdoc": {
    "kind": "dev",
    "methods": {
      "BuyItem(address,uint256)": {
        "params": {
          "NFTContractAddress": "Address of NFT contract",
          "tokenId": "Token ID of NFT"
        }
      },
      "ListItem(address,uint256,uint256)": {
        "details": "We could have an escrow contract but I choose this way bcoz the people could still be holding their nfts until bought by the buyer ",
        "params": {
          "NFTContractAddress": "address of the NFT Contract",
          "price": "the sale price of the NFT to be listed",
          "tokenId": "the tokenId of the NFT"
        }
      }
    },
    "version": 1
  },
  "userdoc": {
    "kind": "user",
    "methods": {
      "BuyItem(address,uint256)": {
        "notice": "Method for buying listingThe owner of an NFT could unapprove the marketplace, which would cause this function to fail Ideally you'd also have a `createOffer` functionality."
      },
      "ListItem(address,uint256,uint256)": {
        "notice": "A function to list the NFTs"
      }
    },
    "version": 1
  },
  "storageLayout": {
    "storage": [
      {
        "astId": 10,
        "contract": "contracts/NFTMarketPlace.sol:NFTMarketPlace",
        "label": "_status",
        "offset": 0,
        "slot": "0",
        "type": "t_uint256"
      },
      {
        "astId": 2816,
        "contract": "contracts/NFTMarketPlace.sol:NFTMarketPlace",
        "label": "s_Listings",
        "offset": 0,
        "slot": "1",
        "type": "t_mapping(t_address,t_mapping(t_uint256,t_struct(Listing)2781_storage))"
      },
      {
        "astId": 2820,
        "contract": "contracts/NFTMarketPlace.sol:NFTMarketPlace",
        "label": "s_proceeds",
        "offset": 0,
        "slot": "2",
        "type": "t_mapping(t_address,t_uint256)"
      }
    ],
    "types": {
      "t_address": {
        "encoding": "inplace",
        "label": "address",
        "numberOfBytes": "20"
      },
      "t_mapping(t_address,t_mapping(t_uint256,t_struct(Listing)2781_storage))": {
        "encoding": "mapping",
        "key": "t_address",
        "label": "mapping(address => mapping(uint256 => struct NFTMarketPlace.Listing))",
        "numberOfBytes": "32",
        "value": "t_mapping(t_uint256,t_struct(Listing)2781_storage)"
      },
      "t_mapping(t_address,t_uint256)": {
        "encoding": "mapping",
        "key": "t_address",
        "label": "mapping(address => uint256)",
        "numberOfBytes": "32",
        "value": "t_uint256"
      },
      "t_mapping(t_uint256,t_struct(Listing)2781_storage)": {
        "encoding": "mapping",
        "key": "t_uint256",
        "label": "mapping(uint256 => struct NFTMarketPlace.Listing)",
        "numberOfBytes": "32",
        "value": "t_struct(Listing)2781_storage"
      },
      "t_struct(Listing)2781_storage": {
        "encoding": "inplace",
        "label": "struct NFTMarketPlace.Listing",
        "members": [
          {
            "astId": 2778,
            "contract": "contracts/NFTMarketPlace.sol:NFTMarketPlace",
            "label": "PriceNFT",
            "offset": 0,
            "slot": "0",
            "type": "t_uint256"
          },
          {
            "astId": 2780,
            "contract": "contracts/NFTMarketPlace.sol:NFTMarketPlace",
            "label": "seller",
            "offset": 0,
            "slot": "1",
            "type": "t_address"
          }
        ],
        "numberOfBytes": "64"
      },
      "t_uint256": {
        "encoding": "inplace",
        "label": "uint256",
        "numberOfBytes": "32"
      }
    }
  }
}