{
  "_format": "hh-sol-artifact-1",
  "contractName": "BasicNft",
  "sourceName": "contracts/test/BasicNFT.sol",
  "abi": [
    {
      "inputs": [],
      "stateMutability": "nonpayable",
      "type": "constructor"
    },
    {
      "anonymous": false,
      "inputs": [
        {
          "indexed": true,
          "internalType": "address",
          "name": "owner",
          "type": "address"
        },
        {
          "indexed": true,
          "internalType": "address",
          "name": "approved",
          "type": "address"
        },
        {
          "indexed": true,
          "internalType": "uint256",
          "name": "tokenId",
          "type": "uint256"
        }
      ],
      "name": "Approval",
      "type": "event"
    },
    {
      "anonymous": false,
      "inputs": [
        {
          "indexed": true,
          "internalType": "address",
          "name": "owner",
          "type": "address"
        },
        {
          "indexed": true,
          "internalType": "address",
          "name": "operator",
          "type": "address"
        },
        {
          "indexed": false,
          "internalType": "bool",
          "name": "approved",
          "type": "bool"
        }
      ],
      "name": "ApprovalForAll",
      "type": "event"
    },
    {
      "anonymous": false,
      "inputs": [
        {
          "indexed": true,
          "internalType": "uint256",
          "name": "tokenId",
          "type": "uint256"
        }
      ],
      "name": "DogMinted",
      "type": "event"
    },
    {
      "anonymous": false,
      "inputs": [
        {
          "indexed": true,
          "internalType": "address",
          "name": "from",
          "type": "address"
        },
        {
          "indexed": true,
          "internalType": "address",
          "name": "to",
          "type": "address"
        },
        {
          "indexed": true,
          "internalType": "uint256",
          "name": "tokenId",
          "type": "uint256"
        }
      ],
      "name": "Transfer",
      "type": "event"
    },
    {
      "inputs": [],
      "name": "TOKEN_URI",
      "outputs": [
        {
          "internalType": "string",
          "name": "",
          "type": "string"
        }
      ],
      "stateMutability": "view",
      "type": "function"
    },
    {
      "inputs": [
        {
          "internalType": "address",
          "name": "to",
          "type": "address"
        },
        {
          "internalType": "uint256",
          "name": "tokenId",
          "type": "uint256"
        }
      ],
      "name": "approve",
      "outputs": [],
      "stateMutability": "nonpayable",
      "type": "function"
    },
    {
      "inputs": [
        {
          "internalType": "address",
          "name": "owner",
          "type": "address"
        }
      ],
      "name": "balanceOf",
      "outputs": [
        {
          "internalType": "uint256",
          "name": "",
          "type": "uint256"
        }
      ],
      "stateMutability": "view",
      "type": "function"
    },
    {
      "inputs": [
        {
          "internalType": "uint256",
          "name": "tokenId",
          "type": "uint256"
        }
      ],
      "name": "getApproved",
      "outputs": [
        {
          "internalType": "address",
          "name": "",
          "type": "address"
        }
      ],
      "stateMutability": "view",
      "type": "function"
    },
    {
      "inputs": [],
      "name": "getTokenCounter",
      "outputs": [
        {
          "internalType": "uint256",
          "name": "",
          "type": "uint256"
        }
      ],
      "stateMutability": "view",
      "type": "function"
    },
    {
      "inputs": [
        {
          "internalType": "address",
          "name": "owner",
          "type": "address"
        },
        {
          "internalType": "address",
          "name": "operator",
          "type": "address"
        }
      ],
      "name": "isApprovedForAll",
      "outputs": [
        {
          "internalType": "bool",
          "name": "",
          "type": "bool"
        }
      ],
      "stateMutability": "view",
      "type": "function"
    },
    {
      "inputs": [],
      "name": "mintNft",
      "outputs": [],
      "stateMutability": "nonpayable",
      "type": "function"
    },
    {
      "inputs": [],
      "name": "name",
      "outputs": [
        {
          "internalType": "string",
          "name": "",
          "type": "string"
        }
      ],
      "stateMutability": "view",
      "type": "function"
    },
    {
      "inputs": [
        {
          "internalType": "uint256",
          "name": "tokenId",
          "type": "uint256"
        }
      ],
      "name": "ownerOf",
      "outputs": [
        {
          "internalType": "address",
          "name": "",
          "type": "address"
        }
      ],
      "stateMutability": "view",
      "type": "function"
    },
    {
      "inputs": [
        {
          "internalType": "address",
          "name": "from",
          "type": "address"
        },
        {
          "internalType": "address",
          "name": "to",
          "type": "address"
        },
        {
          "internalType": "uint256",
          "name": "tokenId",
          "type": "uint256"
        }
      ],
      "name": "safeTransferFrom",
      "outputs": [],
      "stateMutability": "nonpayable",
      "type": "function"
    },
    {
      "inputs": [
        {
          "internalType": "address",
          "name": "from",
          "type": "address"
        },
        {
          "internalType": "address",
          "name": "to",
          "type": "address"
        },
        {
          "internalType": "uint256",
          "name": "tokenId",
          "type": "uint256"
        },
        {
          "internalType": "bytes",
          "name": "data",
          "type": "bytes"
        }
      ],
      "name": "safeTransferFrom",
      "outputs": [],
      "stateMutability": "nonpayable",
      "type": "function"
    },
    {
      "inputs": [
        {
          "internalType": "address",
          "name": "operator",
          "type": "address"
        },
        {
          "internalType": "bool",
          "name": "approved",
          "type": "bool"
        }
      ],
      "name": "setApprovalForAll",
      "outputs": [],
      "stateMutability": "nonpayable",
      "type": "function"
    },
    {
      "inputs": [
        {
          "internalType": "bytes4",
          "name": "interfaceId",
          "type": "bytes4"
        }
      ],
      "name": "supportsInterface",
      "outputs": [
        {
          "internalType": "bool",
          "name": "",
          "type": "bool"
        }
      ],
      "stateMutability": "view",
      "type": "function"
    },
    {
      "inputs": [],
      "name": "symbol",
      "outputs": [
        {
          "internalType": "string",
          "name": "",
          "type": "string"
        }
      ],
      "stateMutability": "view",
      "type": "function"
    },
    {
      "inputs": [
        {
          "internalType": "uint256",
          "name": "tokenId",
          "type": "uint256"
        }
      ],
      "name": "tokenURI",
      "outputs": [
        {
          "internalType": "string",
          "name": "",
          "type": "string"
        }
      ],
      "stateMutability": "view",
      "type": "function"
    },
    {
      "inputs": [
        {
          "internalType": "address",
          "name": "from",
          "type": "address"
        },
        {
          "internalType": "address",
          "name": "to",
          "type": "address"
        },
        {
          "internalType": "uint256",
          "name": "tokenId",
          "type": "uint256"
        }
      ],
      "name": "transferFrom",
      "outputs": [],
      "stateMutability": "nonpayable",
      "type": "function"
    }
  ],
  "bytecode": "0x60806040523480156200001157600080fd5b506040518060400160405280600581526020017f446f6769650000000000000000000000000000000000000000000000000000008152506040518060400160405280600381526020017f444f470000000000000000000000000000000000000000000000000000000000815250816000908051906020019062000096929190620000c0565b508060019080519060200190620000af929190620000c0565b5050506000600681905550620001d5565b828054620000ce9062000170565b90600052602060002090601f016020900481019282620000f257600085556200013e565b82601f106200010d57805160ff19168380011785556200013e565b828001600101855582156200013e579182015b828111156200013d57825182559160200191906001019062000120565b5b5090506200014d919062000151565b5090565b5b808211156200016c57600081600090555060010162000152565b5090565b600060028204905060018216806200018957607f821691505b60208210811415620001a0576200019f620001a6565b5b50919050565b7f4e487b7100000000000000000000000000000000000000000000000000000000600052602260045260246000fd5b6123b880620001e56000396000f3fe608060405234801561001057600080fd5b50600436106101005760003560e01c806370a0823111610097578063b88d4fde11610066578063b88d4fde146102ad578063c2229fea146102c9578063c87b56dd146102d3578063e985e9c51461030357610100565b806370a082311461022557806378ce90351461025557806395d89b4114610273578063a22cb4651461029157610100565b806323b872dd116100d357806323b872dd1461019f57806342842e0e146101bb5780636352211e146101d75780636e02007d1461020757610100565b806301ffc9a71461010557806306fdde0314610135578063081812fc14610153578063095ea7b314610183575b600080fd5b61011f600480360381019061011a9190611880565b610333565b60405161012c9190611bb1565b60405180910390f35b61013d610415565b60405161014a9190611bcc565b60405180910390f35b61016d600480360381019061016891906118da565b6104a7565b60405161017a9190611b4a565b60405180910390f35b61019d60048036038101906101989190611840565b6104ed565b005b6101b960048036038101906101b4919061172a565b610605565b005b6101d560048036038101906101d0919061172a565b610665565b005b6101f160048036038101906101ec91906118da565b610685565b6040516101fe9190611b4a565b60405180910390f35b61020f61070c565b60405161021c9190611d6e565b60405180910390f35b61023f600480360381019061023a91906116bd565b610716565b60405161024c9190611d6e565b60405180910390f35b61025d6107ce565b60405161026a9190611bcc565b60405180910390f35b61027b6107ea565b6040516102889190611bcc565b60405180910390f35b6102ab60048036038101906102a69190611800565b61087c565b005b6102c760048036038101906102c2919061177d565b610892565b005b6102d16108f4565b005b6102ed60048036038101906102e891906118da565b61093d565b6040516102fa9190611bcc565b60405180910390f35b61031d600480360381019061031891906116ea565b6109a7565b60405161032a9190611bb1565b60405180910390f35b60007f80ac58cd000000000000000000000000000000000000000000000000000000007bffffffffffffffffffffffffffffffffffffffffffffffffffffffff1916827bffffffffffffffffffffffffffffffffffffffffffffffffffffffff191614806103fe57507f5b5e139f000000000000000000000000000000000000000000000000000000007bffffffffffffffffffffffffffffffffffffffffffffffffffffffff1916827bffffffffffffffffffffffffffffffffffffffffffffffffffffffff1916145b8061040e575061040d82610a3b565b5b9050919050565b60606000805461042490611ecd565b80601f016020809104026020016040519081016040528092919081815260200182805461045090611ecd565b801561049d5780601f106104725761010080835404028352916020019161049d565b820191906000526020600020905b81548152906001019060200180831161048057829003601f168201915b5050505050905090565b60006104b282610aa5565b6004600083815260200190815260200160002060009054906101000a900473ffffffffffffffffffffffffffffffffffffffff169050919050565b60006104f882610685565b90508073ffffffffffffffffffffffffffffffffffffffff168373ffffffffffffffffffffffffffffffffffffffff161415610569576040517f08c379a000000000000000000000000000000000000000000000000000000000815260040161056090611d2e565b60405180910390fd5b8073ffffffffffffffffffffffffffffffffffffffff16610588610af0565b73ffffffffffffffffffffffffffffffffffffffff1614806105b757506105b6816105b1610af0565b6109a7565b5b6105f6576040517f08c379a00000000000000000000000000000000000000000000000000000000081526004016105ed90611d4e565b60405180910390fd5b6106008383610af8565b505050565b610616610610610af0565b82610bb1565b610655576040517f08c379a000000000000000000000000000000000000000000000000000000000815260040161064c90611bee565b60405180910390fd5b610660838383610c46565b505050565b61068083838360405180602001604052806000815250610892565b505050565b60008061069183610f40565b9050600073ffffffffffffffffffffffffffffffffffffffff168173ffffffffffffffffffffffffffffffffffffffff161415610703576040517f08c379a00000000000000000000000000000000000000000000000000000000081526004016106fa90611d0e565b60405180910390fd5b80915050919050565b6000600654905090565b60008073ffffffffffffffffffffffffffffffffffffffff168273ffffffffffffffffffffffffffffffffffffffff161415610787576040517f08c379a000000000000000000000000000000000000000000000000000000000815260040161077e90611cae565b60405180910390fd5b600360008373ffffffffffffffffffffffffffffffffffffffff1673ffffffffffffffffffffffffffffffffffffffff168152602001908152602001600020549050919050565b60405180608001604052806057815260200161232c6057913981565b6060600180546107f990611ecd565b80601f016020809104026020016040519081016040528092919081815260200182805461082590611ecd565b80156108725780601f1061084757610100808354040283529160200191610872565b820191906000526020600020905b81548152906001019060200180831161085557829003601f168201915b5050505050905090565b61088e610887610af0565b8383610f7d565b5050565b6108a361089d610af0565b83610bb1565b6108e2576040517f08c379a00000000000000000000000000000000000000000000000000000000081526004016108d990611bee565b60405180910390fd5b6108ee848484846110ea565b50505050565b61090033600654611146565b6006547fef1da42f89c42f48befa143007e6f5efd84a2d1cc3dc97c5edd2d3373220f66d60405160405180910390a2600160065401600681905550565b606061094882611164565b610987576040517f08c379a000000000000000000000000000000000000000000000000000000000815260040161097e90611cee565b60405180910390fd5b60405180608001604052806057815260200161232c605791399050919050565b6000600560008473ffffffffffffffffffffffffffffffffffffffff1673ffffffffffffffffffffffffffffffffffffffff16815260200190815260200160002060008373ffffffffffffffffffffffffffffffffffffffff1673ffffffffffffffffffffffffffffffffffffffff16815260200190815260200160002060009054906101000a900460ff16905092915050565b60007f01ffc9a7000000000000000000000000000000000000000000000000000000007bffffffffffffffffffffffffffffffffffffffffffffffffffffffff1916827bffffffffffffffffffffffffffffffffffffffffffffffffffffffff1916149050919050565b610aae81611164565b610aed576040517f08c379a0000000000000000000000000000000000000000000000000000000008152600401610ae490611d0e565b60405180910390fd5b50565b600033905090565b816004600083815260200190815260200160002060006101000a81548173ffffffffffffffffffffffffffffffffffffffff021916908373ffffffffffffffffffffffffffffffffffffffff160217905550808273ffffffffffffffffffffffffffffffffffffffff16610b6b83610685565b73ffffffffffffffffffffffffffffffffffffffff167f8c5be1e5ebec7d5bd14f71427d1e84f3dd0314c0f7b2291e5b200ac8c7c3b92560405160405180910390a45050565b600080610bbd83610685565b90508073ffffffffffffffffffffffffffffffffffffffff168473ffffffffffffffffffffffffffffffffffffffff161480610bff5750610bfe81856109a7565b5b80610c3d57508373ffffffffffffffffffffffffffffffffffffffff16610c25846104a7565b73ffffffffffffffffffffffffffffffffffffffff16145b91505092915050565b8273ffffffffffffffffffffffffffffffffffffffff16610c6682610685565b73ffffffffffffffffffffffffffffffffffffffff1614610cbc576040517f08c379a0000000000000000000000000000000000000000000000000000000008152600401610cb390611c2e565b60405180910390fd5b600073ffffffffffffffffffffffffffffffffffffffff168273ffffffffffffffffffffffffffffffffffffffff161415610d2c576040517f08c379a0000000000000000000000000000000000000000000000000000000008152600401610d2390611c6e565b60405180910390fd5b610d3983838360016111a5565b8273ffffffffffffffffffffffffffffffffffffffff16610d5982610685565b73ffffffffffffffffffffffffffffffffffffffff1614610daf576040517f08c379a0000000000000000000000000000000000000000000000000000000008152600401610da690611c2e565b60405180910390fd5b6004600082815260200190815260200160002060006101000a81549073ffffffffffffffffffffffffffffffffffffffff02191690556001600360008573ffffffffffffffffffffffffffffffffffffffff1673ffffffffffffffffffffffffffffffffffffffff168152602001908152602001600020600082825403925050819055506001600360008473ffffffffffffffffffffffffffffffffffffffff1673ffffffffffffffffffffffffffffffffffffffff16815260200190815260200160002060008282540192505081905550816002600083815260200190815260200160002060006101000a81548173ffffffffffffffffffffffffffffffffffffffff021916908373ffffffffffffffffffffffffffffffffffffffff160217905550808273ffffffffffffffffffffffffffffffffffffffff168473ffffffffffffffffffffffffffffffffffffffff167fddf252ad1be2c89b69c2b068fc378daa952ba7f163c4a11628f55a4df523b3ef60405160405180910390a4610f3b83838360016111ab565b505050565b60006002600083815260200190815260200160002060009054906101000a900473ffffffffffffffffffffffffffffffffffffffff169050919050565b8173ffffffffffffffffffffffffffffffffffffffff168373ffffffffffffffffffffffffffffffffffffffff161415610fec576040517f08c379a0000000000000000000000000000000000000000000000000000000008152600401610fe390611c8e565b60405180910390fd5b80600560008573ffffffffffffffffffffffffffffffffffffffff1673ffffffffffffffffffffffffffffffffffffffff16815260200190815260200160002060008473ffffffffffffffffffffffffffffffffffffffff1673ffffffffffffffffffffffffffffffffffffffff16815260200190815260200160002060006101000a81548160ff0219169083151502179055508173ffffffffffffffffffffffffffffffffffffffff168373ffffffffffffffffffffffffffffffffffffffff167f17307eab39ab6107e8899845ad3d59bd9653f200f220920489ca2b5937696c31836040516110dd9190611bb1565b60405180910390a3505050565b6110f5848484610c46565b611101848484846111b1565b611140576040517f08c379a000000000000000000000000000000000000000000000000000000000815260040161113790611c0e565b60405180910390fd5b50505050565b611160828260405180602001604052806000815250611348565b5050565b60008073ffffffffffffffffffffffffffffffffffffffff1661118683610f40565b73ffffffffffffffffffffffffffffffffffffffff1614159050919050565b50505050565b50505050565b60006111d28473ffffffffffffffffffffffffffffffffffffffff166113a3565b1561133b578373ffffffffffffffffffffffffffffffffffffffff1663150b7a026111fb610af0565b8786866040518563ffffffff1660e01b815260040161121d9493929190611b65565b602060405180830381600087803b15801561123757600080fd5b505af192505050801561126857506040513d601f19601f8201168201806040525081019061126591906118ad565b60015b6112eb573d8060008114611298576040519150601f19603f3d011682016040523d82523d6000602084013e61129d565b606091505b506000815114156112e3576040517f08c379a00000000000000000000000000000000000000000000000000000000081526004016112da90611c0e565b60405180910390fd5b805181602001fd5b63150b7a0260e01b7bffffffffffffffffffffffffffffffffffffffffffffffffffffffff1916817bffffffffffffffffffffffffffffffffffffffffffffffffffffffff191614915050611340565b600190505b949350505050565b61135283836113c6565b61135f60008484846111b1565b61139e576040517f08c379a000000000000000000000000000000000000000000000000000000000815260040161139590611c0e565b60405180910390fd5b505050565b6000808273ffffffffffffffffffffffffffffffffffffffff163b119050919050565b600073ffffffffffffffffffffffffffffffffffffffff168273ffffffffffffffffffffffffffffffffffffffff161415611436576040517f08c379a000000000000000000000000000000000000000000000000000000000815260040161142d90611cce565b60405180910390fd5b61143f81611164565b1561147f576040517f08c379a000000000000000000000000000000000000000000000000000000000815260040161147690611c4e565b60405180910390fd5b61148d6000838360016111a5565b61149681611164565b156114d6576040517f08c379a00000000000000000000000000000000000000000000000000000000081526004016114cd90611c4e565b60405180910390fd5b6001600360008473ffffffffffffffffffffffffffffffffffffffff1673ffffffffffffffffffffffffffffffffffffffff16815260200190815260200160002060008282540192505081905550816002600083815260200190815260200160002060006101000a81548173ffffffffffffffffffffffffffffffffffffffff021916908373ffffffffffffffffffffffffffffffffffffffff160217905550808273ffffffffffffffffffffffffffffffffffffffff16600073ffffffffffffffffffffffffffffffffffffffff167fddf252ad1be2c89b69c2b068fc378daa952ba7f163c4a11628f55a4df523b3ef60405160405180910390a46115e06000838360016111ab565b5050565b60006115f76115f284611dae565b611d89565b90508281526020810184848401111561161357611612611f93565b5b61161e848285611e8b565b509392505050565b600081359050611635816122cf565b92915050565b60008135905061164a816122e6565b92915050565b60008135905061165f816122fd565b92915050565b600081519050611674816122fd565b92915050565b600082601f83011261168f5761168e611f8e565b5b813561169f8482602086016115e4565b91505092915050565b6000813590506116b781612314565b92915050565b6000602082840312156116d3576116d2611f9d565b5b60006116e184828501611626565b91505092915050565b6000806040838503121561170157611700611f9d565b5b600061170f85828601611626565b925050602061172085828601611626565b9150509250929050565b60008060006060848603121561174357611742611f9d565b5b600061175186828701611626565b935050602061176286828701611626565b9250506040611773868287016116a8565b9150509250925092565b6000806000806080858703121561179757611796611f9d565b5b60006117a587828801611626565b94505060206117b687828801611626565b93505060406117c7878288016116a8565b925050606085013567ffffffffffffffff8111156117e8576117e7611f98565b5b6117f48782880161167a565b91505092959194509250565b6000806040838503121561181757611816611f9d565b5b600061182585828601611626565b92505060206118368582860161163b565b9150509250929050565b6000806040838503121561185757611856611f9d565b5b600061186585828601611626565b9250506020611876858286016116a8565b9150509250929050565b60006020828403121561189657611895611f9d565b5b60006118a484828501611650565b91505092915050565b6000602082840312156118c3576118c2611f9d565b5b60006118d184828501611665565b91505092915050565b6000602082840312156118f0576118ef611f9d565b5b60006118fe848285016116a8565b91505092915050565b61191081611e17565b82525050565b61191f81611e29565b82525050565b600061193082611ddf565b61193a8185611df5565b935061194a818560208601611e9a565b61195381611fa2565b840191505092915050565b600061196982611dea565b6119738185611e06565b9350611983818560208601611e9a565b61198c81611fa2565b840191505092915050565b60006119a4602d83611e06565b91506119af82611fb3565b604082019050919050565b60006119c7603283611e06565b91506119d282612002565b604082019050919050565b60006119ea602583611e06565b91506119f582612051565b604082019050919050565b6000611a0d601c83611e06565b9150611a18826120a0565b602082019050919050565b6000611a30602483611e06565b9150611a3b826120c9565b604082019050919050565b6000611a53601983611e06565b9150611a5e82612118565b602082019050919050565b6000611a76602983611e06565b9150611a8182612141565b604082019050919050565b6000611a99602083611e06565b9150611aa482612190565b602082019050919050565b6000611abc602f83611e06565b9150611ac7826121b9565b604082019050919050565b6000611adf601883611e06565b9150611aea82612208565b602082019050919050565b6000611b02602183611e06565b9150611b0d82612231565b604082019050919050565b6000611b25603d83611e06565b9150611b3082612280565b604082019050919050565b611b4481611e81565b82525050565b6000602082019050611b5f6000830184611907565b92915050565b6000608082019050611b7a6000830187611907565b611b876020830186611907565b611b946040830185611b3b565b8181036060830152611ba68184611925565b905095945050505050565b6000602082019050611bc66000830184611916565b92915050565b60006020820190508181036000830152611be6818461195e565b905092915050565b60006020820190508181036000830152611c0781611997565b9050919050565b60006020820190508181036000830152611c27816119ba565b9050919050565b60006020820190508181036000830152611c47816119dd565b9050919050565b60006020820190508181036000830152611c6781611a00565b9050919050565b60006020820190508181036000830152611c8781611a23565b9050919050565b60006020820190508181036000830152611ca781611a46565b9050919050565b60006020820190508181036000830152611cc781611a69565b9050919050565b60006020820190508181036000830152611ce781611a8c565b9050919050565b60006020820190508181036000830152611d0781611aaf565b9050919050565b60006020820190508181036000830152611d2781611ad2565b9050919050565b60006020820190508181036000830152611d4781611af5565b9050919050565b60006020820190508181036000830152611d6781611b18565b9050919050565b6000602082019050611d836000830184611b3b565b92915050565b6000611d93611da4565b9050611d9f8282611eff565b919050565b6000604051905090565b600067ffffffffffffffff821115611dc957611dc8611f5f565b5b611dd282611fa2565b9050602081019050919050565b600081519050919050565b600081519050919050565b600082825260208201905092915050565b600082825260208201905092915050565b6000611e2282611e61565b9050919050565b60008115159050919050565b60007fffffffff0000000000000000000000000000000000000000000000000000000082169050919050565b600073ffffffffffffffffffffffffffffffffffffffff82169050919050565b6000819050919050565b82818337600083830152505050565b60005b83811015611eb8578082015181840152602081019050611e9d565b83811115611ec7576000848401525b50505050565b60006002820490506001821680611ee557607f821691505b60208210811415611ef957611ef8611f30565b5b50919050565b611f0882611fa2565b810181811067ffffffffffffffff82111715611f2757611f26611f5f565b5b80604052505050565b7f4e487b7100000000000000000000000000000000000000000000000000000000600052602260045260246000fd5b7f4e487b7100000000000000000000000000000000000000000000000000000000600052604160045260246000fd5b600080fd5b600080fd5b600080fd5b600080fd5b6000601f19601f8301169050919050565b7f4552433732313a2063616c6c6572206973206e6f7420746f6b656e206f776e6560008201527f72206f7220617070726f76656400000000000000000000000000000000000000602082015250565b7f4552433732313a207472616e7366657220746f206e6f6e20455243373231526560008201527f63656976657220696d706c656d656e7465720000000000000000000000000000602082015250565b7f4552433732313a207472616e736665722066726f6d20696e636f72726563742060008201527f6f776e6572000000000000000000000000000000000000000000000000000000602082015250565b7f4552433732313a20746f6b656e20616c7265616479206d696e74656400000000600082015250565b7f4552433732313a207472616e7366657220746f20746865207a65726f2061646460008201527f7265737300000000000000000000000000000000000000000000000000000000602082015250565b7f4552433732313a20617070726f766520746f2063616c6c657200000000000000600082015250565b7f4552433732313a2061646472657373207a65726f206973206e6f74206120766160008201527f6c6964206f776e65720000000000000000000000000000000000000000000000602082015250565b7f4552433732313a206d696e7420746f20746865207a65726f2061646472657373600082015250565b7f4552433732314d657461646174613a2055524920717565727920666f72206e6f60008201527f6e6578697374656e7420746f6b656e0000000000000000000000000000000000602082015250565b7f4552433732313a20696e76616c696420746f6b656e2049440000000000000000600082015250565b7f4552433732313a20617070726f76616c20746f2063757272656e74206f776e6560008201527f7200000000000000000000000000000000000000000000000000000000000000602082015250565b7f4552433732313a20617070726f76652063616c6c6572206973206e6f7420746f60008201527f6b656e206f776e6572206f7220617070726f76656420666f7220616c6c000000602082015250565b6122d881611e17565b81146122e357600080fd5b50565b6122ef81611e29565b81146122fa57600080fd5b50565b61230681611e35565b811461231157600080fd5b50565b61231d81611e81565b811461232857600080fd5b5056fe697066733a2f2f62616679626569673337696f6972373673376d67356f6f6265746e636f6a636d3363336878617379643472766964346a71687934676b61686567342f3f66696c656e616d653d302d5055472e6a736f6ea264697066735822122032dd3e6b50cbe1ea31de168d86e4a7a252b54167960f58f0ed7e9fdc3fe747c464736f6c63430008070033",
  "linkReferences": {},
  "deployedLinkReferences": {}
}