{
  "_format": "hh-sol-artifact-1",
  "contractName": "NFTMarketPlace",
  "sourceName": "contracts/NFTMarketPlace.sol",
  "abi": [
    {
      "inputs": [
        {
          "internalType": "address",
          "name": "NFTContractAddress",
          "type": "address"
        },
        {
          "internalType": "uint256",
          "name": "TokenId",
          "type": "uint256"
        }
      ],
      "name": "NFTMarketPlace__NFTAlreadyMinted",
      "type": "error"
    },
    {
      "inputs": [],
      "name": "NFTMarketPlace__NFTNotApprovedForMarketPlace",
      "type": "error"
    },
    {
      "inputs": [],
      "name": "NFTMarketPlace__NoProceeds",
      "type": "error"
    },
    {
      "inputs": [
        {
          "internalType": "address",
          "name": "NFTContractAddress",
          "type": "address"
        },
        {
          "internalType": "uint256",
          "name": "tokenId",
          "type": "uint256"
        }
      ],
      "name": "NFTMarketPlace__NotListed",
      "type": "error"
    },
    {
      "inputs": [],
      "name": "NFTMarketPlace__NotOwner",
      "type": "error"
    },
    {
      "inputs": [],
      "name": "NFTMarketPlace__PriceMustBeAboveZero",
      "type": "error"
    },
    {
      "inputs": [
        {
          "internalType": "address",
          "name": "NFTContractAddress",
          "type": "address"
        },
        {
          "internalType": "uint256",
          "name": "tokenId",
          "type": "uint256"
        },
        {
          "internalType": "uint256",
          "name": "price",
          "type": "uint256"
        }
      ],
      "name": "NFTMarketPlace__PriceNotMet",
      "type": "error"
    },
    {
      "inputs": [],
      "name": "NFTMarketPlace__TransferFailed",
      "type": "error"
    },
    {
      "anonymous": false,
      "inputs": [
        {
          "indexed": true,
          "internalType": "address",
          "name": "buyer",
          "type": "address"
        },
        {
          "indexed": true,
          "internalType": "address",
          "name": "NFTContractAddress",
          "type": "address"
        },
        {
          "indexed": true,
          "internalType": "uint256",
          "name": "tokenId",
          "type": "uint256"
        },
        {
          "indexed": false,
          "internalType": "uint256",
          "name": "price",
          "type": "uint256"
        }
      ],
      "name": "ItemBought",
      "type": "event"
    },
    {
      "anonymous": false,
      "inputs": [
        {
          "indexed": true,
          "internalType": "address",
          "name": "seller",
          "type": "address"
        },
        {
          "indexed": true,
          "internalType": "address",
          "name": "NFTContractAddress",
          "type": "address"
        },
        {
          "indexed": true,
          "internalType": "uint256",
          "name": "tokenId",
          "type": "uint256"
        }
      ],
      "name": "ItemCancelled",
      "type": "event"
    },
    {
      "anonymous": false,
      "inputs": [
        {
          "indexed": true,
          "internalType": "address",
          "name": "seller",
          "type": "address"
        },
        {
          "indexed": true,
          "internalType": "address",
          "name": "NFTContractAddress",
          "type": "address"
        },
        {
          "indexed": false,
          "internalType": "uint256",
          "name": "tokenId",
          "type": "uint256"
        },
        {
          "indexed": false,
          "internalType": "uint256",
          "name": "price",
          "type": "uint256"
        }
      ],
      "name": "ItemListing",
      "type": "event"
    },
    {
      "inputs": [
        {
          "internalType": "address",
          "name": "NFTContractAddress",
          "type": "address"
        },
        {
          "internalType": "uint256",
          "name": "tokenId",
          "type": "uint256"
        }
      ],
      "name": "BuyItem",
      "outputs": [],
      "stateMutability": "payable",
      "type": "function"
    },
    {
      "inputs": [
        {
          "internalType": "address",
          "name": "NFTContractAddress",
          "type": "address"
        },
        {
          "internalType": "uint256",
          "name": "tokenId",
          "type": "uint256"
        }
      ],
      "name": "CancelListing",
      "outputs": [],
      "stateMutability": "nonpayable",
      "type": "function"
    },
    {
      "inputs": [
        {
          "internalType": "address",
          "name": "NFTContractAddress",
          "type": "address"
        },
        {
          "internalType": "uint256",
          "name": "tokenId",
          "type": "uint256"
        },
        {
          "internalType": "uint256",
          "name": "price",
          "type": "uint256"
        }
      ],
      "name": "ListItem",
      "outputs": [],
      "stateMutability": "nonpayable",
      "type": "function"
    },
    {
      "inputs": [
        {
          "internalType": "address",
          "name": "NFTContractAddress",
          "type": "address"
        },
        {
          "internalType": "uint256",
          "name": "tokenId",
          "type": "uint256"
        },
        {
          "internalType": "uint256",
          "name": "newPrice",
          "type": "uint256"
        }
      ],
      "name": "UpdateListing",
      "outputs": [],
      "stateMutability": "nonpayable",
      "type": "function"
    },
    {
      "inputs": [],
      "name": "Withdraw",
      "outputs": [],
      "stateMutability": "nonpayable",
      "type": "function"
    },
    {
      "inputs": [],
      "name": "getBalance",
      "outputs": [
        {
          "internalType": "uint256",
          "name": "",
          "type": "uint256"
        }
      ],
      "stateMutability": "view",
      "type": "function"
    },
    {
      "inputs": [
        {
          "internalType": "address",
          "name": "NFTContractAddress",
          "type": "address"
        },
        {
          "internalType": "uint256",
          "name": "tokenId",
          "type": "uint256"
        }
      ],
      "name": "getListing",
      "outputs": [
        {
          "components": [
            {
              "internalType": "uint256",
              "name": "PriceNFT",
              "type": "uint256"
            },
            {
              "internalType": "address",
              "name": "seller",
              "type": "address"
            }
          ],
          "internalType": "struct NFTMarketPlace.Listing",
          "name": "",
          "type": "tuple"
        }
      ],
      "stateMutability": "view",
      "type": "function"
    },
    {
      "inputs": [
        {
          "internalType": "address",
          "name": "seller",
          "type": "address"
        }
      ],
      "name": "getProceeds",
      "outputs": [
        {
          "internalType": "uint256",
          "name": "",
          "type": "uint256"
        }
      ],
      "stateMutability": "view",
      "type": "function"
    }
  ],
  "bytecode": "0x608060405234801561001057600080fd5b50600160008190555061173d806100286000396000f3fe60806040526004361061007b5760003560e01c8063713033621161004e578063713033621461012857806388700d1c1461014457806399e2659614610181578063d7d8a397146101aa5761007b565b806312065fe01461008057806330cfeda9146100ab57806331880bc4146100e857806357ea89b614610111575b600080fd5b34801561008c57600080fd5b506100956101d3565b6040516100a291906115fb565b60405180910390f35b3480156100b757600080fd5b506100d260048036038101906100cd9190611340565b6101db565b6040516100df91906115fb565b60405180910390f35b3480156100f457600080fd5b5061010f600480360381019061010a91906113da565b610224565b005b34801561011d57600080fd5b5061012661069d565b005b610142600480360381019061013d919061139a565b610807565b005b34801561015057600080fd5b5061016b6004803603810190610166919061139a565b610beb565b60405161017891906115e0565b60405180910390f35b34801561018d57600080fd5b506101a860048036038101906101a391906113da565b610cb6565b005b3480156101b657600080fd5b506101d160048036038101906101cc919061139a565b610f88565b005b600047905090565b6000600260008373ffffffffffffffffffffffffffffffffffffffff1673ffffffffffffffffffffffffffffffffffffffff168152602001908152602001600020549050919050565b8282336000600160008573ffffffffffffffffffffffffffffffffffffffff1673ffffffffffffffffffffffffffffffffffffffff1681526020019081526020016000206000848152602001908152602001600020604051806040016040529081600082015481526020016001820160009054906101000a900473ffffffffffffffffffffffffffffffffffffffff1673ffffffffffffffffffffffffffffffffffffffff1673ffffffffffffffffffffffffffffffffffffffff168152505090506000816000015111156103325783836040517f748ab4ac000000000000000000000000000000000000000000000000000000008152600401610329929190611560565b60405180910390fd5b868633600083905060008173ffffffffffffffffffffffffffffffffffffffff16636352211e856040518263ffffffff1660e01b815260040161037591906115fb565b60206040518083038186803b15801561038d57600080fd5b505afa1580156103a1573d6000803e3d6000fd5b505050506040513d601f19601f820116820180604052508101906103c5919061136d565b90508073ffffffffffffffffffffffffffffffffffffffff168373ffffffffffffffffffffffffffffffffffffffff161461042c576040517ffdeb5dcc00000000000000000000000000000000000000000000000000000000815260040160405180910390fd5b60008a11610466576040517fe088d80a00000000000000000000000000000000000000000000000000000000815260040160405180910390fd5b60008c90503073ffffffffffffffffffffffffffffffffffffffff168173ffffffffffffffffffffffffffffffffffffffff1663081812fc8e6040518263ffffffff1660e01b81526004016104bb91906115fb565b60206040518083038186803b1580156104d357600080fd5b505afa1580156104e7573d6000803e3d6000fd5b505050506040513d601f19601f8201168201806040525081019061050b919061136d565b73ffffffffffffffffffffffffffffffffffffffff1614610558576040517f0bee3d1f00000000000000000000000000000000000000000000000000000000815260040160405180910390fd5b60405180604001604052808c81526020013373ffffffffffffffffffffffffffffffffffffffff16815250600160008f73ffffffffffffffffffffffffffffffffffffffff1673ffffffffffffffffffffffffffffffffffffffff16815260200190815260200160002060008e81526020019081526020016000206000820151816000015560208201518160010160006101000a81548173ffffffffffffffffffffffffffffffffffffffff021916908373ffffffffffffffffffffffffffffffffffffffff1602179055509050508c73ffffffffffffffffffffffffffffffffffffffff163373ffffffffffffffffffffffffffffffffffffffff167fc15f8db4bea81c58d4b31a2134cf1d25f6fcfe7559f6df346f8b3a0ddc0e44588e8e604051610686929190611616565b60405180910390a350505050505050505050505050565b6000600260003373ffffffffffffffffffffffffffffffffffffffff1673ffffffffffffffffffffffffffffffffffffffff1681526020019081526020016000205490506000811161071b576040517f57b9893c00000000000000000000000000000000000000000000000000000000815260040160405180910390fd5b6000600260003373ffffffffffffffffffffffffffffffffffffffff1673ffffffffffffffffffffffffffffffffffffffff1681526020019081526020016000208190555060003373ffffffffffffffffffffffffffffffffffffffff168260405161078690611501565b60006040518083038185875af1925050503d80600081146107c3576040519150601f19603f3d011682016040523d82523d6000602084013e6107c8565b606091505b5050905080610803576040517f29cd022e00000000000000000000000000000000000000000000000000000000815260040160405180910390fd5b5050565b81816000600160008473ffffffffffffffffffffffffffffffffffffffff1673ffffffffffffffffffffffffffffffffffffffff1681526020019081526020016000206000838152602001908152602001600020604051806040016040529081600082015481526020016001820160009054906101000a900473ffffffffffffffffffffffffffffffffffffffff1673ffffffffffffffffffffffffffffffffffffffff1673ffffffffffffffffffffffffffffffffffffffff1681525050905060008160000151116109135782826040517fd39a415900000000000000000000000000000000000000000000000000000000815260040161090a929190611560565b60405180910390fd5b61091b611277565b6000600160008773ffffffffffffffffffffffffffffffffffffffff1673ffffffffffffffffffffffffffffffffffffffff1681526020019081526020016000206000868152602001908152602001600020604051806040016040529081600082015481526020016001820160009054906101000a900473ffffffffffffffffffffffffffffffffffffffff1673ffffffffffffffffffffffffffffffffffffffff1673ffffffffffffffffffffffffffffffffffffffff168152505090508060000151341015610a2b57858582600001516040517f63c94a0f000000000000000000000000000000000000000000000000000000008152600401610a2293929190611589565b60405180910390fd5b3460026000836020015173ffffffffffffffffffffffffffffffffffffffff1673ffffffffffffffffffffffffffffffffffffffff16815260200190815260200160002060008282540192505081905550600160008773ffffffffffffffffffffffffffffffffffffffff1673ffffffffffffffffffffffffffffffffffffffff16815260200190815260200160002060008681526020019081526020016000206000808201600090556001820160006101000a81549073ffffffffffffffffffffffffffffffffffffffff021916905550508573ffffffffffffffffffffffffffffffffffffffff1663b88d4fde826020015133886040518463ffffffff1660e01b8152600401610b3f93929190611516565b600060405180830381600087803b158015610b5957600080fd5b505af1158015610b6d573d6000803e3d6000fd5b50505050848673ffffffffffffffffffffffffffffffffffffffff163373ffffffffffffffffffffffffffffffffffffffff167f263223b1dd81e51054a4e6f791d45a4a1ddb4aadcd93a2dfd892615c3fdac1878460000151604051610bd391906115fb565b60405180910390a450610be46112c7565b5050505050565b610bf36112d1565b600160008473ffffffffffffffffffffffffffffffffffffffff1673ffffffffffffffffffffffffffffffffffffffff1681526020019081526020016000206000838152602001908152602001600020604051806040016040529081600082015481526020016001820160009054906101000a900473ffffffffffffffffffffffffffffffffffffffff1673ffffffffffffffffffffffffffffffffffffffff1673ffffffffffffffffffffffffffffffffffffffff1681525050905092915050565b82826000600160008473ffffffffffffffffffffffffffffffffffffffff1673ffffffffffffffffffffffffffffffffffffffff1681526020019081526020016000206000838152602001908152602001600020604051806040016040529081600082015481526020016001820160009054906101000a900473ffffffffffffffffffffffffffffffffffffffff1673ffffffffffffffffffffffffffffffffffffffff1673ffffffffffffffffffffffffffffffffffffffff168152505090506000816000015111610dc25782826040517fd39a4159000000000000000000000000000000000000000000000000000000008152600401610db9929190611560565b60405180910390fd5b858533600083905060008173ffffffffffffffffffffffffffffffffffffffff16636352211e856040518263ffffffff1660e01b8152600401610e0591906115fb565b60206040518083038186803b158015610e1d57600080fd5b505afa158015610e31573d6000803e3d6000fd5b505050506040513d601f19601f82011682018060405250810190610e55919061136d565b90508073ffffffffffffffffffffffffffffffffffffffff168373ffffffffffffffffffffffffffffffffffffffff1614610ebc576040517ffdeb5dcc00000000000000000000000000000000000000000000000000000000815260040160405180910390fd5b88600160008d73ffffffffffffffffffffffffffffffffffffffff1673ffffffffffffffffffffffffffffffffffffffff16815260200190815260200160002060008c8152602001908152602001600020600001819055508a73ffffffffffffffffffffffffffffffffffffffff163373ffffffffffffffffffffffffffffffffffffffff167fc15f8db4bea81c58d4b31a2134cf1d25f6fcfe7559f6df346f8b3a0ddc0e44588c8c604051610f73929190611616565b60405180910390a35050505050505050505050565b818133600083905060008173ffffffffffffffffffffffffffffffffffffffff16636352211e856040518263ffffffff1660e01b8152600401610fcb91906115fb565b60206040518083038186803b158015610fe357600080fd5b505afa158015610ff7573d6000803e3d6000fd5b505050506040513d601f19601f8201168201806040525081019061101b919061136d565b90508073ffffffffffffffffffffffffffffffffffffffff168373ffffffffffffffffffffffffffffffffffffffff1614611082576040517ffdeb5dcc00000000000000000000000000000000000000000000000000000000815260040160405180910390fd5b86866000600160008473ffffffffffffffffffffffffffffffffffffffff1673ffffffffffffffffffffffffffffffffffffffff1681526020019081526020016000206000838152602001908152602001600020604051806040016040529081600082015481526020016001820160009054906101000a900473ffffffffffffffffffffffffffffffffffffffff1673ffffffffffffffffffffffffffffffffffffffff1673ffffffffffffffffffffffffffffffffffffffff16815250509050600081600001511161118e5782826040517fd39a4159000000000000000000000000000000000000000000000000000000008152600401611185929190611560565b60405180910390fd5b600160008b73ffffffffffffffffffffffffffffffffffffffff1673ffffffffffffffffffffffffffffffffffffffff16815260200190815260200160002060008a81526020019081526020016000206000808201600090556001820160006101000a81549073ffffffffffffffffffffffffffffffffffffffff02191690555050888a73ffffffffffffffffffffffffffffffffffffffff163373ffffffffffffffffffffffffffffffffffffffff167f6e08c1d889d309942730e4afa7963d0c5294a34a479f2c8cf39a953f287dcdee60405160405180910390a450505050505050505050565b600260005414156112bd576040517f08c379a00000000000000000000000000000000000000000000000000000000081526004016112b4906115c0565b60405180910390fd5b6002600081905550565b6001600081905550565b604051806040016040528060008152602001600073ffffffffffffffffffffffffffffffffffffffff1681525090565b600081359050611310816116d9565b92915050565b600081519050611325816116d9565b92915050565b60008135905061133a816116f0565b92915050565b600060208284031215611356576113556116a8565b5b600061136484828501611301565b91505092915050565b600060208284031215611383576113826116a8565b5b600061139184828501611316565b91505092915050565b600080604083850312156113b1576113b06116a8565b5b60006113bf85828601611301565b92505060206113d08582860161132b565b9150509250929050565b6000806000606084860312156113f3576113f26116a8565b5b600061140186828701611301565b93505060206114128682870161132b565b92505060406114238682870161132b565b9150509250925092565b6114368161166c565b82525050565b6114458161166c565b82525050565b600061145860008361163f565b9150611463826116ad565b600082019050919050565b600061147b600083611650565b9150611486826116ad565b600082019050919050565b600061149e601f8361165b565b91506114a9826116b0565b602082019050919050565b6040820160008201516114ca60008501826114e3565b5060208201516114dd602085018261142d565b50505050565b6114ec8161169e565b82525050565b6114fb8161169e565b82525050565b600061150c8261146e565b9150819050919050565b600060808201905061152b600083018661143c565b611538602083018561143c565b61154560408301846114f2565b81810360608301526115568161144b565b9050949350505050565b6000604082019050611575600083018561143c565b61158260208301846114f2565b9392505050565b600060608201905061159e600083018661143c565b6115ab60208301856114f2565b6115b860408301846114f2565b949350505050565b600060208201905081810360008301526115d981611491565b9050919050565b60006040820190506115f560008301846114b4565b92915050565b600060208201905061161060008301846114f2565b92915050565b600060408201905061162b60008301856114f2565b61163860208301846114f2565b9392505050565b600082825260208201905092915050565b600081905092915050565b600082825260208201905092915050565b60006116778261167e565b9050919050565b600073ffffffffffffffffffffffffffffffffffffffff82169050919050565b6000819050919050565b600080fd5b50565b7f5265656e7472616e637947756172643a207265656e7472616e742063616c6c00600082015250565b6116e28161166c565b81146116ed57600080fd5b50565b6116f98161169e565b811461170457600080fd5b5056fea2646970667358221220e45dd28802011699877ac567e2c2e55459d97bb53e7332395febd55b5c81aae164736f6c63430008070033",
  "linkReferences": {},
  "deployedLinkReferences": {}
}